{
  "contractName": "Dogs",
  "abi": [
    {
      "constant": true,
      "inputs": [],
      "name": "getNumberOfDogs",
      "outputs": [
        {
          "name": "",
          "type": "uint256"
        }
      ],
      "payable": false,
      "stateMutability": "view",
      "type": "function"
    },
    {
      "constant": false,
      "inputs": [
        {
          "name": "toSet",
          "type": "uint256"
        }
      ],
      "name": "setNumberOfDogs",
      "outputs": [],
      "payable": false,
      "stateMutability": "nonpayable",
      "type": "function"
    }
  ],
  "bytecode": "0x608060405234801561001057600080fd5b50610103806100206000396000f3fe6080604052600436106049576000357c0100000000000000000000000000000000000000000000000000000000900463ffffffff16806314861b2214604e5780631680a5ed146085575b600080fd5b348015605957600080fd5b50608360048036036020811015606e57600080fd5b810190808035906020019092919050505060ad565b005b348015609057600080fd5b50609760b7565b6040518082815260200191505060405180910390f35b60b48160c4565b50565b600060bf60ce565b905090565b8060008190555050565b6000805490509056fea165627a7a72305820842169ce3405251030635b400e5cdba7aa2b0978059a1176873824fb4ca1df8c0029",
  "source": "pragma solidity 0.5.0;\n\nimport \"./Storage.sol\";\n\ncontract Dogs is Storage {\n\n    function getNumberOfDogs() public view returns(uint256) {\n        return Storage.getNumber();\n    }\n\n    function setNumberOfDogs(uint256 toSet) public {\n        Storage.setNumber(toSet);\n    }\n}\n",
  "sourcePath": "/Users/darynatokmachova/Desktop/SmartContracts/contracts/Upgradeable-Basic/Dog.sol",
  "compiler": {
    "name": "solc",
    "version": "0.5.0+commit.1d4f565a.Emscripten.clang"
  },
  "schemaVersion": "3.0.8",
  "updatedAt": "2021-11-22T17:44:18.794Z",
  "devdoc": {
    "methods": {}
  },
  "userdoc": {
    "methods": {}
  }
}