{
  "contractName": "ProxyDog",
  "abi": [
    {
      "constant": true,
      "inputs": [],
      "name": "currentAddress",
      "outputs": [
        {
          "name": "",
          "type": "address"
        }
      ],
      "payable": false,
      "stateMutability": "view",
      "type": "function"
    },
    {
      "inputs": [
        {
          "name": "_currentAddress",
          "type": "address"
        }
      ],
      "payable": false,
      "stateMutability": "nonpayable",
      "type": "constructor"
    },
    {
      "constant": false,
      "inputs": [
        {
          "name": "_currentAddress",
          "type": "address"
        }
      ],
      "name": "upgrade",
      "outputs": [],
      "payable": false,
      "stateMutability": "nonpayable",
      "type": "function"
    },
    {
      "constant": false,
      "inputs": [],
      "name": "getNumberOfDogs",
      "outputs": [
        {
          "name": "",
          "type": "bool"
        },
        {
          "name": "",
          "type": "bytes"
        }
      ],
      "payable": false,
      "stateMutability": "nonpayable",
      "type": "function"
    },
    {
      "constant": false,
      "inputs": [
        {
          "name": "_number",
          "type": "uint256"
        }
      ],
      "name": "setNumberOfDogs",
      "outputs": [
        {
          "name": "",
          "type": "bool"
        },
        {
          "name": "",
          "type": "bytes"
        }
      ],
      "payable": false,
      "stateMutability": "nonpayable",
      "type": "function"
    }
  ],
  "bytecode": "0x608060405234801561001057600080fd5b506040516020806106988339810180604052602081101561003057600080fd5b810190808051906020019092919050505080600160006101000a81548173ffffffffffffffffffffffffffffffffffffffff021916908373ffffffffffffffffffffffffffffffffffffffff16021790555050610606806100926000396000f3fe608060405260043610610062576000357c0100000000000000000000000000000000000000000000000000000000900463ffffffff1680630900f0101461006757806314861b22146100b85780631680a5ed1461017757806381bf471814610212575b600080fd5b34801561007357600080fd5b506100b66004803603602081101561008a57600080fd5b81019080803573ffffffffffffffffffffffffffffffffffffffff169060200190929190505050610269565b005b3480156100c457600080fd5b506100f1600480360360208110156100db57600080fd5b81019080803590602001909291905050506102ad565b604051808315151515815260200180602001828103825283818151815260200191508051906020019080838360005b8381101561013b578082015181840152602081019050610120565b50505050905090810190601f1680156101685780820380516001836020036101000a031916815260200191505b50935050505060405180910390f35b34801561018357600080fd5b5061018c610435565b604051808315151515815260200180602001828103825283818151815260200191508051906020019080838360005b838110156101d65780820151818401526020810190506101bb565b50505050905090810190601f1680156102035780820380516001836020036101000a031916815260200191505b50935050505060405180910390f35b34801561021e57600080fd5b506102276105b4565b604051808273ffffffffffffffffffffffffffffffffffffffff1673ffffffffffffffffffffffffffffffffffffffff16815260200191505060405180910390f35b80600160006101000a81548173ffffffffffffffffffffffffffffffffffffffff021916908373ffffffffffffffffffffffffffffffffffffffff16021790555050565b6000606060006060600160009054906101000a900473ffffffffffffffffffffffffffffffffffffffff1673ffffffffffffffffffffffffffffffffffffffff1660405180807f7365744e756d6265724f66446f67732875696e74323536290000000000000000815250601801905060405180910390208660405160200180837bffffffffffffffffffffffffffffffffffffffffffffffffffffffff19167bffffffffffffffffffffffffffffffffffffffffffffffffffffffff19168152600401828152602001925050506040516020818303038152906040526040518082805190602001908083835b6020831015156103be5780518252602082019150602081019050602083039250610399565b6001836020036101000a038019825116818451168082178552505050505050905001915050600060405180830381855af49150503d806000811461041e576040519150601f19603f3d011682016040523d82523d6000602084013e610423565b606091505b50915091508181935093505050915091565b6000606060006060600160009054906101000a900473ffffffffffffffffffffffffffffffffffffffff1673ffffffffffffffffffffffffffffffffffffffff1660405180807f6765744e756d6265724f66446f677328290000000000000000000000000000008152506011019050604051809103902060405160200180827bffffffffffffffffffffffffffffffffffffffffffffffffffffffff19167bffffffffffffffffffffffffffffffffffffffffffffffffffffffff191681526004019150506040516020818303038152906040526040518082805190602001908083835b60208310151561053e5780518252602082019150602081019050602083039250610519565b6001836020036101000a038019825116818451168082178552505050505050905001915050600060405180830381855af49150503d806000811461059e576040519150601f19603f3d011682016040523d82523d6000602084013e6105a3565b606091505b509150915081819350935050509091565b600160009054906101000a900473ffffffffffffffffffffffffffffffffffffffff168156fea165627a7a7230582076f87eac2962b7a74c7d83b2b258486cda7590dc06e6352d13a8b5829cf1a9e90029",
  "source": "pragma solidity 0.5.0;\n\nimport \"./Storage.sol\";\n\ncontract ProxyDog is Storage {\n\n    address public currentAddress;\n\n    constructor(address _currentAddress) public {\n        currentAddress = _currentAddress;\n    }\n\n    function upgrade(address _currentAddress) public {\n        currentAddress = _currentAddress;\n    }\n\n    function getNumberOfDogs() public returns (bool, bytes memory){\n        (bool res, bytes memory data) = currentAddress.delegatecall(abi.encodePacked(bytes4(keccak256(\"getNumberOfDogs()\"))));\n        return (res, data);\n    }\n    function setNumberOfDogs(uint256 _number) public returns (bool, bytes memory){\n        (bool res, bytes memory data) = currentAddress.delegatecall(abi.encodePacked(bytes4(keccak256(\"setNumberOfDogs(uint256)\")), _number));\n        return (res, data);\n    }\n}\n",
  "sourcePath": "/Users/darynatokmachova/Desktop/SmartContracts/contracts/Upgradeable-Basic/Proxy.sol",
  "compiler": {
    "name": "solc",
    "version": "0.5.0+commit.1d4f565a.Emscripten.clang"
  },
  "schemaVersion": "3.0.8",
  "updatedAt": "2021-11-22T17:44:18.795Z",
  "devdoc": {
    "methods": {}
  },
  "userdoc": {
    "methods": {}
  }
}